{
  "contractName": "Iris",
  "abi": [
    {
      "constant": true,
      "inputs": [],
      "name": "name",
      "outputs": [
        {
          "name": "",
          "type": "string"
        }
      ],
      "payable": false,
      "stateMutability": "view",
      "type": "function"
    },
    {
      "constant": true,
      "inputs": [],
      "name": "decimals",
      "outputs": [
        {
          "name": "",
          "type": "uint256"
        }
      ],
      "payable": false,
      "stateMutability": "view",
      "type": "function"
    },
    {
      "constant": true,
      "inputs": [],
      "name": "symbol",
      "outputs": [
        {
          "name": "",
          "type": "string"
        }
      ],
      "payable": false,
      "stateMutability": "view",
      "type": "function"
    },
    {
      "inputs": [],
      "payable": false,
      "stateMutability": "nonpayable",
      "type": "constructor"
    },
    {
      "anonymous": false,
      "inputs": [
        {
          "indexed": true,
          "name": "burner",
          "type": "address"
        },
        {
          "indexed": false,
          "name": "value",
          "type": "uint256"
        }
      ],
      "name": "CoinsBurned",
      "type": "event"
    },
    {
      "anonymous": false,
      "inputs": [
        {
          "indexed": true,
          "name": "buyer",
          "type": "address"
        },
        {
          "indexed": false,
          "name": "value",
          "type": "uint256"
        }
      ],
      "name": "CoinsBought",
      "type": "event"
    },
    {
      "anonymous": false,
      "inputs": [
        {
          "indexed": true,
          "name": "sender",
          "type": "address"
        },
        {
          "indexed": true,
          "name": "tipper",
          "type": "address"
        },
        {
          "indexed": false,
          "name": "value",
          "type": "uint256"
        }
      ],
      "name": "TippedAmount",
      "type": "event"
    },
    {
      "constant": true,
      "inputs": [
        {
          "name": "_who",
          "type": "address"
        }
      ],
      "name": "balanceOf",
      "outputs": [
        {
          "name": "",
          "type": "uint256"
        }
      ],
      "payable": false,
      "stateMutability": "view",
      "type": "function"
    },
    {
      "constant": true,
      "inputs": [
        {
          "name": "_who",
          "type": "address"
        }
      ],
      "name": "checkBalance",
      "outputs": [
        {
          "name": "",
          "type": "uint256"
        }
      ],
      "payable": false,
      "stateMutability": "view",
      "type": "function"
    },
    {
      "constant": false,
      "inputs": [
        {
          "name": "_receiver",
          "type": "address"
        }
      ],
      "name": "buyOmen",
      "outputs": [],
      "payable": true,
      "stateMutability": "payable",
      "type": "function"
    },
    {
      "constant": false,
      "inputs": [
        {
          "name": "_receiver",
          "type": "address"
        },
        {
          "name": "_value",
          "type": "uint256"
        }
      ],
      "name": "tipOmen",
      "outputs": [],
      "payable": false,
      "stateMutability": "nonpayable",
      "type": "function"
    },
    {
      "constant": false,
      "inputs": [
        {
          "name": "_receiver",
          "type": "address"
        }
      ],
      "name": "tipWei",
      "outputs": [],
      "payable": true,
      "stateMutability": "payable",
      "type": "function"
    },
    {
      "constant": false,
      "inputs": [
        {
          "name": "_value",
          "type": "uint256"
        }
      ],
      "name": "boost",
      "outputs": [],
      "payable": false,
      "stateMutability": "nonpayable",
      "type": "function"
    }
  ],
  "bytecode": "0x6080604052601260640a68056bc75e2d631000000260005534801561002357600080fd5b5033600160006101000a81548173ffffffffffffffffffffffffffffffffffffffff021916908373ffffffffffffffffffffffffffffffffffffffff160217905550600054600260003073ffffffffffffffffffffffffffffffffffffffff1673ffffffffffffffffffffffffffffffffffffffff16815260200190815260200160002060008282540192505081905550611120806100c36000396000f3fe6080604052600436106100865760003560e01c806360358e241161005957806360358e24146101e657806370a082311461024157806395d89b41146102a6578063ab57d24414610336578063d70db5d71461037a57610086565b806306fdde031461008b5780631b55d19e1461011b578063313ce567146101565780635f51522614610181575b600080fd5b34801561009757600080fd5b506100a06103be565b6040518080602001828103825283818151815260200191508051906020019080838360005b838110156100e05780820151818401526020810190506100c5565b50505050905090810190601f16801561010d5780820380516001836020036101000a031916815260200191505b509250505060405180910390f35b34801561012757600080fd5b506101546004803603602081101561013e57600080fd5b81019080803590602001909291905050506103f7565b005b34801561016257600080fd5b5061016b610592565b6040518082815260200191505060405180910390f35b34801561018d57600080fd5b506101d0600480360360208110156101a457600080fd5b81019080803573ffffffffffffffffffffffffffffffffffffffff169060200190929190505050610597565b6040518082815260200191505060405180910390f35b3480156101f257600080fd5b5061023f6004803603604081101561020957600080fd5b81019080803573ffffffffffffffffffffffffffffffffffffffff169060200190929190803590602001909291905050506105b8565b005b34801561024d57600080fd5b506102906004803603602081101561026457600080fd5b81019080803573ffffffffffffffffffffffffffffffffffffffff1690602001909291905050506108cf565b6040518082815260200191505060405180910390f35b3480156102b257600080fd5b506102bb610918565b6040518080602001828103825283818151815260200191508051906020019080838360005b838110156102fb5780820151818401526020810190506102e0565b50505050905090810190601f1680156103285780820380516001836020036101000a031916815260200191505b509250505060405180910390f35b6103786004803603602081101561034c57600080fd5b81019080803573ffffffffffffffffffffffffffffffffffffffff169060200190929190505050610951565b005b6103bc6004803603602081101561039057600080fd5b81019080803573ffffffffffffffffffffffffffffffffffffffff169060200190929190505050610caa565b005b6040518060400160405280600481526020017f4f6d656e0000000000000000000000000000000000000000000000000000000081525081565b6000600260003373ffffffffffffffffffffffffffffffffffffffff1673ffffffffffffffffffffffffffffffffffffffff16815260200190815260200160002054116104ac576040517f08c379a000000000000000000000000000000000000000000000000000000000815260040180806020018281038252601d8152602001807f596f7520646f6e206e6f74206861766520656e6f756768204f6d656e2e00000081525060200191505060405180910390fd5b6104fe81600260003373ffffffffffffffffffffffffffffffffffffffff1673ffffffffffffffffffffffffffffffffffffffff16815260200190815260200160002054610dfc90919063ffffffff16565b600260003373ffffffffffffffffffffffffffffffffffffffff1673ffffffffffffffffffffffffffffffffffffffff168152602001908152602001600020819055503373ffffffffffffffffffffffffffffffffffffffff167f33344c06dba7656a35bce75ce489fc640bcc353cc281e65dc8479e76ac050684826040518082815260200191505060405180910390a250565b601281565b60008173ffffffffffffffffffffffffffffffffffffffff16319050919050565b6000600260003373ffffffffffffffffffffffffffffffffffffffff1673ffffffffffffffffffffffffffffffffffffffff168152602001908152602001600020541161066d576040517f08c379a000000000000000000000000000000000000000000000000000000000815260040180806020018281038252601d8152602001807f596f7520646f6e206e6f74206861766520656e6f756768204f6d656e2e00000081525060200191505060405180910390fd5b6000600260008473ffffffffffffffffffffffffffffffffffffffff1673ffffffffffffffffffffffffffffffffffffffff1681526020019081526020016000205411610705576040517f08c379a000000000000000000000000000000000000000000000000000000000815260040180806020018281038252602a8152602001806110cb602a913960400191505060405180910390fd5b61078e816040518060400160405280601b81526020017f5469702063616e206e6f74206578636565642062616c616e63652e0000000000815250600260003373ffffffffffffffffffffffffffffffffffffffff1673ffffffffffffffffffffffffffffffffffffffff16815260200190815260200160002054610e469092919063ffffffff16565b600260003373ffffffffffffffffffffffffffffffffffffffff1673ffffffffffffffffffffffffffffffffffffffff1681526020019081526020016000208190555061082381600260008573ffffffffffffffffffffffffffffffffffffffff1673ffffffffffffffffffffffffffffffffffffffff16815260200190815260200160002054610f0690919063ffffffff16565b600260008473ffffffffffffffffffffffffffffffffffffffff1673ffffffffffffffffffffffffffffffffffffffff168152602001908152602001600020819055508173ffffffffffffffffffffffffffffffffffffffff163373ffffffffffffffffffffffffffffffffffffffff167f8131055b8eb0cc1636921a0c4e3c6261f2e07d27202d57a646f993fc23e29001836040518082815260200191505060405180910390a35050565b6000600260008373ffffffffffffffffffffffffffffffffffffffff1673ffffffffffffffffffffffffffffffffffffffff168152602001908152602001600020549050919050565b6040518060400160405280600381526020017f4f4d4e000000000000000000000000000000000000000000000000000000000081525081565b3373ffffffffffffffffffffffffffffffffffffffff16600160009054906101000a900473ffffffffffffffffffffffffffffffffffffffff1673ffffffffffffffffffffffffffffffffffffffff1614156109f8576040517f08c379a000000000000000000000000000000000000000000000000000000000815260040180806020018281038252602c81526020018061109f602c913960400191505060405180910390fd5b600160009054906101000a900473ffffffffffffffffffffffffffffffffffffffff1673ffffffffffffffffffffffffffffffffffffffff166108fc349081150290604051600060405180830381858888f19350505050158015610a60573d6000803e3d6000fd5b506000610a7861035734610f8e90919063ffffffff16565b9050600260003073ffffffffffffffffffffffffffffffffffffffff1673ffffffffffffffffffffffffffffffffffffffff168152602001908152602001600020548110610b2e576040517f08c379a00000000000000000000000000000000000000000000000000000000081526004018080602001828103825260198152602001807f43616e206e6f742065786365656420746865206c696d69742e0000000000000081525060200191505060405180910390fd5b610b8081600260003073ffffffffffffffffffffffffffffffffffffffff1673ffffffffffffffffffffffffffffffffffffffff16815260200190815260200160002054610dfc90919063ffffffff16565b600260003073ffffffffffffffffffffffffffffffffffffffff1673ffffffffffffffffffffffffffffffffffffffff16815260200190815260200160002081905550610c1581600260008573ffffffffffffffffffffffffffffffffffffffff1673ffffffffffffffffffffffffffffffffffffffff16815260200190815260200160002054610f0690919063ffffffff16565b600260008473ffffffffffffffffffffffffffffffffffffffff1673ffffffffffffffffffffffffffffffffffffffff168152602001908152602001600020819055508173ffffffffffffffffffffffffffffffffffffffff167f12134b66c1352b5b37e17a26fe2a88b4b09001b779b2a6b7d3ef03ba6b5a7e6a826040518082815260200191505060405180910390a25050565b600073ffffffffffffffffffffffffffffffffffffffff168173ffffffffffffffffffffffffffffffffffffffff161415610d4d576040517f08c379a000000000000000000000000000000000000000000000000000000000815260040180806020018281038252601e8152602001807f43616e206e6f742073656e6420746f20746865203020616464726573732e000081525060200191505060405180910390fd5b8073ffffffffffffffffffffffffffffffffffffffff166108fc349081150290604051600060405180830381858888f19350505050158015610d93573d6000803e3d6000fd5b508073ffffffffffffffffffffffffffffffffffffffff163373ffffffffffffffffffffffffffffffffffffffff167f8131055b8eb0cc1636921a0c4e3c6261f2e07d27202d57a646f993fc23e29001346040518082815260200191505060405180910390a350565b6000610e3e83836040518060400160405280601e81526020017f536166654d6174683a207375627472616374696f6e206f766572666c6f770000815250610e46565b905092915050565b6000838311158290610ef3576040517f08c379a00000000000000000000000000000000000000000000000000000000081526004018080602001828103825283818151815260200191508051906020019080838360005b83811015610eb8578082015181840152602081019050610e9d565b50505050905090810190601f168015610ee55780820380516001836020036101000a031916815260200191505b509250505060405180910390fd5b5060008385039050809150509392505050565b600080828401905083811015610f84576040517f08c379a000000000000000000000000000000000000000000000000000000000815260040180806020018281038252601b8152602001807f536166654d6174683a206164646974696f6e206f766572666c6f77000000000081525060200191505060405180910390fd5b8091505092915050565b6000610fd083836040518060400160405280601a81526020017f536166654d6174683a206469766973696f6e206279207a65726f000000000000815250610fd8565b905092915050565b60008083118290611084576040517f08c379a00000000000000000000000000000000000000000000000000000000081526004018080602001828103825283818151815260200191508051906020019080838360005b8381101561104957808201518184015260208101905061102e565b50505050905090810190601f1680156110765780820380516001836020036101000a031916815260200191505b509250505060405180910390fd5b50600083858161109057fe5b04905080915050939250505056fe436f6e74726163742063726561746f722063616e206e6f742063616c6c20746869732066756e6374696f6e2e43616e206e6f74207472616e7366657220746f2075736572732077686f20686173206e6f204f6d656e2ea165627a7a723058205d4b3458bbda22d5c5e05a65bd2471b21d596bac4c2ad47d8a3829f81ba3b5150029",
  "source": "pragma solidity >=0.4.21 <0.6.0;\n\nimport './SafeMath.sol';\nimport './Omen.sol';\nimport './Owner.sol';\n\ncontract Iris is Omen, Owner {\n    using SafeMath for uint256;\n    \n    constructor() public {  \n        balances[address(this)] += initialSupply;\n    }\n    \n    mapping (address => uint256) balances;\n    \n    event CoinsBurned (address indexed burner, uint256 value);\n    event CoinsBought (address indexed buyer, uint256 value);\n    event TippedAmount (address indexed sender, address indexed tipper, uint256 value);\n\n    modifier hasOmen() {\n       require(balances[msg.sender] > 0, 'You don not have enough Omen.');\n       _;\n    }\n    \n     function balanceOf(address _who) public view returns (uint256) {\n         return balances[_who];\n     }\n     \n     function checkBalance(address _who) public view returns (uint256) {\n         return address(_who).balance;\n     }\n    \n    \n    function buyOmen(address _receiver) public payable {\n        require(owner != msg.sender, 'Contract creator can not call this function.');\n\n        owner.transfer(msg.value);\n        uint256 omens = (msg.value).div((855));\n\n        require(omens < balances[address(this)], 'Can not exceed the limit.');\n\n        balances[address(this)] = balances[address(this)].sub(omens);\n        balances[_receiver] = balances[_receiver].add(omens);\n        emit CoinsBought (_receiver,  omens);\n    }\n    \n    function tipOmen(address _receiver, uint256 _value) public hasOmen {\n        require(balances[_receiver] > 0, 'Can not transfer to users who has no Omen.');\n        \n        balances[msg.sender] = balances[msg.sender].sub(_value, 'Tip can not exceed balance.');\n        balances[_receiver] = balances[_receiver].add(_value);\n        emit TippedAmount (msg.sender, _receiver, _value);\n    }\n    \n    function tipWei(address payable _receiver) public payable {\n        require(_receiver != address(0), 'Can not send to the 0 address.');\n        \n        _receiver.transfer(msg.value);\n        emit TippedAmount (msg.sender, _receiver, msg.value);\n    }\n    \n    function boost(uint256 _value) public hasOmen {\n        balances[msg.sender] = balances[msg.sender].sub(_value);\n        emit CoinsBurned (msg.sender, _value);\n    }\n\n}\n",
  "sourcePath": "/Users/kuroro/Desktop/Iris/contracts/Iris.sol",
  "compiler": {
    "name": "solc",
    "version": "0.5.8+commit.23d335f2.Emscripten.clang"
  },
  "schemaVersion": "3.0.12",
  "updatedAt": "2019-08-16T19:42:00.987Z",
  "devdoc": {
    "methods": {}
  },
  "userdoc": {
    "methods": {}
  }
}