{
  "contractName": "Omen",
  "abi": [
    {
      "constant": true,
      "inputs": [],
      "name": "name",
      "outputs": [
        {
          "name": "",
          "type": "string"
        }
      ],
      "payable": false,
      "stateMutability": "view",
      "type": "function"
    },
    {
      "constant": true,
      "inputs": [],
      "name": "decimals",
      "outputs": [
        {
          "name": "",
          "type": "uint256"
        }
      ],
      "payable": false,
      "stateMutability": "view",
      "type": "function"
    },
    {
      "constant": true,
      "inputs": [],
      "name": "symbol",
      "outputs": [
        {
          "name": "",
          "type": "string"
        }
      ],
      "payable": false,
      "stateMutability": "view",
      "type": "function"
    }
  ],
  "bytecode": "0x6080604052601260640a68056bc75e2d631000000260005534801561002357600080fd5b5061020d806100336000396000f3fe608060405234801561001057600080fd5b50600436106100415760003560e01c806306fdde0314610046578063313ce567146100c957806395d89b41146100e7575b600080fd5b61004e61016a565b6040518080602001828103825283818151815260200191508051906020019080838360005b8381101561008e578082015181840152602081019050610073565b50505050905090810190601f1680156100bb5780820380516001836020036101000a031916815260200191505b509250505060405180910390f35b6100d16101a3565b6040518082815260200191505060405180910390f35b6100ef6101a8565b6040518080602001828103825283818151815260200191508051906020019080838360005b8381101561012f578082015181840152602081019050610114565b50505050905090810190601f16801561015c5780820380516001836020036101000a031916815260200191505b509250505060405180910390f35b6040518060400160405280600481526020017f4f6d656e0000000000000000000000000000000000000000000000000000000081525081565b601281565b6040518060400160405280600381526020017f4f4d4e00000000000000000000000000000000000000000000000000000000008152508156fea165627a7a72305820824e2cc91f9aa6b1e8ba5a4d0567a065879a2306d1199fcc5ed3b12c50d402310029",
  "source": "pragma solidity >=0.4.21 <0.6.0;\n\n\ncontract Omen {\n    string public constant name = \"Omen\";\n    string public constant symbol = \"OMN\";\n    uint public constant decimals = 18;\n    uint256 internal initialSupply = 100000000000000000000 * (100 ** uint256(decimals));\n}\n",
  "sourcePath": "/Users/kuroro/Desktop/Iris/contracts/Omen.sol",
  "compiler": {
    "name": "solc",
    "version": "0.5.8+commit.23d335f2.Emscripten.clang"
  },
  "schemaVersion": "3.0.12",
  "updatedAt": "2019-08-16T19:42:00.991Z",
  "devdoc": {
    "methods": {}
  },
  "userdoc": {
    "methods": {}
  }
}